{
  "abi": [
    {
      "inputs": [
        {
          "internalType": "address[]",
          "name": "_admins",
          "type": "address[]"
        },
        {
          "internalType": "uint256",
          "name": "_totalSupply",
          "type": "uint256"
        }
      ],
      "stateMutability": "nonpayable",
      "type": "constructor"
    },
    {
      "inputs": [],
      "name": "InsufficientBalance",
      "type": "error"
    },
    {
      "inputs": [],
      "name": "InvalidAmount",
      "type": "error"
    },
    {
      "inputs": [],
      "name": "InvalidCaller",
      "type": "error"
    },
    {
      "inputs": [],
      "name": "InvalidNameLength",
      "type": "error"
    },
    {
      "inputs": [],
      "name": "InvalidTier",
      "type": "error"
    },
    {
      "anonymous": false,
      "inputs": [
        {
          "indexed": false,
          "internalType": "address",
          "name": "userAddress",
          "type": "address"
        },
        {
          "indexed": false,
          "internalType": "uint256",
          "name": "tier",
          "type": "uint256"
        }
      ],
      "name": "AddedToWhitelist",
      "type": "event"
    },
    {
      "anonymous": false,
      "inputs": [
        {
          "indexed": true,
          "internalType": "address",
          "name": "",
          "type": "address"
        }
      ],
      "name": "WhiteListTransfer",
      "type": "event"
    },
    {
      "inputs": [
        {
          "internalType": "address",
          "name": "_userAddrs",
          "type": "address"
        },
        {
          "internalType": "uint256",
          "name": "_tier",
          "type": "uint256"
        }
      ],
      "name": "addToWhitelist",
      "outputs": [],
      "stateMutability": "nonpayable",
      "type": "function"
    },
    {
      "inputs": [
        {
          "internalType": "uint256",
          "name": "_adminIndex",
          "type": "uint256"
        }
      ],
      "name": "administrators",
      "outputs": [
        {
          "internalType": "address",
          "name": "admin_",
          "type": "address"
        }
      ],
      "stateMutability": "view",
      "type": "function"
    },
    {
      "inputs": [
        {
          "internalType": "address",
          "name": "_user",
          "type": "address"
        }
      ],
      "name": "balanceOf",
      "outputs": [
        {
          "internalType": "uint256",
          "name": "",
          "type": "uint256"
        }
      ],
      "stateMutability": "view",
      "type": "function"
    },
    {
      "inputs": [
        {
          "internalType": "address",
          "name": "",
          "type": "address"
        }
      ],
      "name": "balances",
      "outputs": [
        {
          "internalType": "uint256",
          "name": "",
          "type": "uint256"
        }
      ],
      "stateMutability": "view",
      "type": "function"
    },
    {
      "inputs": [
        {
          "internalType": "address",
          "name": "sender",
          "type": "address"
        }
      ],
      "name": "getPaymentStatus",
      "outputs": [
        {
          "internalType": "bool",
          "name": "",
          "type": "bool"
        },
        {
          "internalType": "uint256",
          "name": "",
          "type": "uint256"
        }
      ],
      "stateMutability": "view",
      "type": "function"
    },
    {
      "inputs": [],
      "name": "totalSupply",
      "outputs": [
        {
          "internalType": "uint256",
          "name": "",
          "type": "uint256"
        }
      ],
      "stateMutability": "view",
      "type": "function"
    },
    {
      "inputs": [
        {
          "internalType": "address",
          "name": "_recipient",
          "type": "address"
        },
        {
          "internalType": "uint256",
          "name": "_amount",
          "type": "uint256"
        },
        {
          "internalType": "string",
          "name": "_name",
          "type": "string"
        }
      ],
      "name": "transfer",
      "outputs": [
        {
          "internalType": "bool",
          "name": "status_",
          "type": "bool"
        }
      ],
      "stateMutability": "nonpayable",
      "type": "function"
    },
    {
      "inputs": [
        {
          "internalType": "address",
          "name": "_recipient",
          "type": "address"
        },
        {
          "internalType": "uint256",
          "name": "_amount",
          "type": "uint256"
        }
      ],
      "name": "whiteTransfer",
      "outputs": [],
      "stateMutability": "nonpayable",
      "type": "function"
    },
    {
      "inputs": [
        {
          "internalType": "address",
          "name": "",
          "type": "address"
        }
      ],
      "name": "whitelist",
      "outputs": [
        {
          "internalType": "uint256",
          "name": "",
          "type": "uint256"
        }
      ],
      "stateMutability": "view",
      "type": "function"
    }
  ],
  "bytecode": {
    "object": "0x610140604052600080553480156200001657600080fd5b5060405162000bbe38038062000bbe8339810160408190526200003991620001f6565b3360805281518290600090620000535762000053620002d0565b60200260200101516001600160a01b031660a0816001600160a01b031681525050816001815181106200008a576200008a620002d0565b60200260200101516001600160a01b031660c0816001600160a01b03168152505081600281518110620000c157620000c1620002d0565b60200260200101516001600160a01b031660e0816001600160a01b03168152505081600381518110620000f857620000f8620002d0565b60200260200101516001600160a01b0316610100816001600160a01b03168152505081600481518110620001305762000130620002d0565b60209081029190910101516001600160a01b03166101205260005b6005811015620001b957336001600160a01b0316838281518110620001745762000174620002d0565b60200260200101516001600160a01b031603620001a45750336000908152600160205260409020819055620001bb565b80620001b081620002e6565b9150506200014b565b505b50506200030e565b634e487b7160e01b600052604160045260246000fd5b80516001600160a01b0381168114620001f157600080fd5b919050565b600080604083850312156200020a57600080fd5b82516001600160401b03808211156200022257600080fd5b818501915085601f8301126200023757600080fd5b81516020828211156200024e576200024e620001c3565b8160051b604051601f19603f83011681018181108682111715620002765762000276620001c3565b6040529283528183019350848101820192898411156200029557600080fd5b948201945b83861015620002be57620002ae86620001d9565b855294820194938201936200029a565b97909101519698969750505050505050565b634e487b7160e01b600052603260045260246000fd5b6000600182016200030757634e487b7160e01b600052601160045260246000fd5b5060010190565b60805160a05160c05160e051610100516101205161083d620003816000396000818161043a015261069201526000818161040b015261065f0152600081816103dc015261062c0152600081816103ad01526105f901526000818161037e01526105c7015260006101f0015261083d6000f3fe608060405234801561001057600080fd5b50600436106100935760003560e01c806370a082311161006657806370a082311461010c578063888b2284146101355780639b19251a14610177578063d89d151014610197578063ea28d320146101c257600080fd5b806318160ddd14610098578063214405fc146100b457806327e235e3146100c957806356b8c724146100e9575b600080fd5b6100a160005481565b6040519081526020015b60405180910390f35b6100c76100c23660046106d9565b6101d5565b005b6100a16100d7366004610703565b60016020526000908152604090205481565b6100fc6100f7366004610725565b6102c3565b60405190151581526020016100ab565b6100a161011a366004610703565b6001600160a01b031660009081526001602052604090205490565b610160610143366004610703565b6001600160a01b0316600090815260036020526040902054600191565b6040805192151583526020830191909152016100ab565b6100a1610185366004610703565b60026020526000908152604090205481565b6101aa6101a53660046107ac565b610371565b6040516001600160a01b0390911681526020016100ab565b6100c76101d03660046106d9565b610463565b6101dd6105c3565b1580156102135750336001600160a01b037f00000000000000000000000000000000000000000000000000000000000000001614155b15610231576040516348f5c3ed60e01b815260040160405180910390fd5b60ff81106102525760405163e142361760e01b815260040160405180910390fd5b60038110156102615780610264565b60035b6001600160a01b03831660008181526002602090815260409182902060ff9490941690935580519182529181018390527f62c1e066774519db9fe35767c15fc33df2f016675b7cc0c330ed185f286a2d52910160405180910390a15050565b336000908152600160205260408120548411156102f357604051631e9acf1760e31b815260040160405180910390fd5b600882111561031557604051631ae3550b60e01b815260040160405180910390fd5b33600090815260016020526040812080548692906103349084906107db565b90915550506001600160a01b038516600090815260016020526040812080548692906103619084906107f4565b9091555060019695505050505050565b6000816000036103a257507f0000000000000000000000000000000000000000000000000000000000000000919050565b816001036103d157507f0000000000000000000000000000000000000000000000000000000000000000919050565b8160020361040057507f0000000000000000000000000000000000000000000000000000000000000000919050565b8160030361042f57507f0000000000000000000000000000000000000000000000000000000000000000919050565b8160040361045e57507f0000000000000000000000000000000000000000000000000000000000000000919050565b919050565b33600090815260026020526040902054600410156104945760405163e142361760e01b815260040160405180910390fd5b600381116104b55760405163162908e360e11b815260040160405180910390fd5b3360008181526003602090815260408083208590556001909152812080548492906104e19084906107db565b90915550506001600160a01b0383166000908152600160205260408120805484929061050e9084906107f4565b90915550506001600160a01b038116600090815260026020908152604080832054600190925282208054919290916105479084906107f4565b90915550506001600160a01b0380821660009081526002602090815260408083205493871683526001909152812080549091906105859084906107db565b90915550506040516001600160a01b038416907f98eaee7299e9cbfa56cf530fd3a0c6dfa0ccddf4f837b8f025651ad9594647b390600090a2505050565b60007f00000000000000000000000000000000000000000000000000000000000000006001600160a01b031633148061062457507f00000000000000000000000000000000000000000000000000000000000000006001600160a01b031633145b8061065757507f00000000000000000000000000000000000000000000000000000000000000006001600160a01b031633145b8061068a57507f00000000000000000000000000000000000000000000000000000000000000006001600160a01b031633145b806106bd57507f00000000000000000000000000000000000000000000000000000000000000006001600160a01b031633145b905090565b80356001600160a01b038116811461045e57600080fd5b600080604083850312156106ec57600080fd5b6106f5836106c2565b946020939093013593505050565b60006020828403121561071557600080fd5b61071e826106c2565b9392505050565b6000806000806060858703121561073b57600080fd5b610744856106c2565b935060208501359250604085013567ffffffffffffffff8082111561076857600080fd5b818701915087601f83011261077c57600080fd5b81358181111561078b57600080fd5b88602082850101111561079d57600080fd5b95989497505060200194505050565b6000602082840312156107be57600080fd5b5035919050565b634e487b7160e01b600052601160045260246000fd5b818103818111156107ee576107ee6107c5565b92915050565b808201808211156107ee576107ee6107c556fea26469706673582212202a530256c1a60c420262402d87bf096bfadf3395e384d43c03aafadb4dcb2c9c64736f6c63430008110033",
    "linkReferences": {}
  },
  "methodIdentifiers": {
    "addToWhitelist(address,uint256)": "214405fc",
    "administrators(uint256)": "d89d1510",
    "balanceOf(address)": "70a08231",
    "balances(address)": "27e235e3",
    "getPaymentStatus(address)": "888b2284",
    "totalSupply()": "18160ddd",
    "transfer(address,uint256,string)": "56b8c724",
    "whiteTransfer(address,uint256)": "ea28d320",
    "whitelist(address)": "9b19251a"
  },
  "id": 18
}