{
  "abi": [
    {
      "inputs": [
        {
          "internalType": "uint256",
          "name": "a",
          "type": "uint256"
        },
        {
          "internalType": "uint256",
          "name": "b",
          "type": "uint256"
        }
      ],
      "name": "sub",
      "outputs": [
        {
          "internalType": "uint256",
          "name": "",
          "type": "uint256"
        }
      ],
      "stateMutability": "pure",
      "type": "function"
    }
  ],
  "bytecode": {
    "object": "0x60e3610039600b82828239805160001a60731461002c57634e487b7160e01b600052600060045260246000fd5b30600052607381538281f3fe730000000000000000000000000000000000000000301460806040526004361060335760003560e01c8063b67d77c5146038575b600080fd5b60476043366004606c565b6059565b60405190815260200160405180910390f35b600060638383608d565b90505b92915050565b60008060408385031215607e57600080fd5b50508035926020909101359150565b81810381811115606657634e487b7160e01b600052601160045260246000fdfea2646970667358221220a61c1ed4e65a860af62a426d928814f3a0b944de569762fd4c46f9f7def69a0764736f6c63430008110033",
    "linkReferences": {}
  },
  "methodIdentifiers": {
    "sub(uint256,uint256)": "b67d77c5"
  },
  "id": 17
}