{
  "abi": [
    {
      "inputs": [
        {
          "internalType": "address[]",
          "name": "_admins",
          "type": "address[]"
        },
        {
          "internalType": "uint256",
          "name": "_totalSupply",
          "type": "uint256"
        }
      ],
      "stateMutability": "nonpayable",
      "type": "constructor"
    },
    {
      "inputs": [],
      "name": "InvalidCaller",
      "type": "error"
    },
    {
      "inputs": [],
      "name": "InvalidTier",
      "type": "error"
    },
    {
      "anonymous": false,
      "inputs": [
        {
          "indexed": false,
          "internalType": "address",
          "name": "userAddress",
          "type": "address"
        },
        {
          "indexed": false,
          "internalType": "uint256",
          "name": "tier",
          "type": "uint256"
        }
      ],
      "name": "AddedToWhitelist",
      "type": "event"
    },
    {
      "anonymous": false,
      "inputs": [
        {
          "indexed": true,
          "internalType": "address",
          "name": "previousOwner",
          "type": "address"
        },
        {
          "indexed": true,
          "internalType": "address",
          "name": "newOwner",
          "type": "address"
        }
      ],
      "name": "OwnershipTransferred",
      "type": "event"
    },
    {
      "anonymous": false,
      "inputs": [
        {
          "indexed": true,
          "internalType": "address",
          "name": "",
          "type": "address"
        }
      ],
      "name": "WhiteListTransfer",
      "type": "event"
    },
    {
      "inputs": [
        {
          "internalType": "address",
          "name": "_userAddrs",
          "type": "address"
        },
        {
          "internalType": "uint256",
          "name": "_tier",
          "type": "uint256"
        }
      ],
      "name": "addToWhitelist",
      "outputs": [],
      "stateMutability": "nonpayable",
      "type": "function"
    },
    {
      "inputs": [],
      "name": "administrator0",
      "outputs": [
        {
          "internalType": "address",
          "name": "",
          "type": "address"
        }
      ],
      "stateMutability": "view",
      "type": "function"
    },
    {
      "inputs": [],
      "name": "administrator1",
      "outputs": [
        {
          "internalType": "address",
          "name": "",
          "type": "address"
        }
      ],
      "stateMutability": "view",
      "type": "function"
    },
    {
      "inputs": [],
      "name": "administrator2",
      "outputs": [
        {
          "internalType": "address",
          "name": "",
          "type": "address"
        }
      ],
      "stateMutability": "view",
      "type": "function"
    },
    {
      "inputs": [],
      "name": "administrator3",
      "outputs": [
        {
          "internalType": "address",
          "name": "",
          "type": "address"
        }
      ],
      "stateMutability": "view",
      "type": "function"
    },
    {
      "inputs": [],
      "name": "administrator4",
      "outputs": [
        {
          "internalType": "address",
          "name": "",
          "type": "address"
        }
      ],
      "stateMutability": "view",
      "type": "function"
    },
    {
      "inputs": [
        {
          "internalType": "uint256",
          "name": "_adminIndex",
          "type": "uint256"
        }
      ],
      "name": "administrators",
      "outputs": [
        {
          "internalType": "address",
          "name": "admin_",
          "type": "address"
        }
      ],
      "stateMutability": "view",
      "type": "function"
    },
    {
      "inputs": [
        {
          "internalType": "address",
          "name": "_user",
          "type": "address"
        }
      ],
      "name": "balanceOf",
      "outputs": [
        {
          "internalType": "uint256",
          "name": "",
          "type": "uint256"
        }
      ],
      "stateMutability": "view",
      "type": "function"
    },
    {
      "inputs": [
        {
          "internalType": "address",
          "name": "",
          "type": "address"
        }
      ],
      "name": "balances",
      "outputs": [
        {
          "internalType": "uint256",
          "name": "",
          "type": "uint256"
        }
      ],
      "stateMutability": "view",
      "type": "function"
    },
    {
      "inputs": [],
      "name": "checkOwner",
      "outputs": [
        {
          "internalType": "bool",
          "name": "",
          "type": "bool"
        }
      ],
      "stateMutability": "view",
      "type": "function"
    },
    {
      "inputs": [
        {
          "internalType": "address",
          "name": "sender",
          "type": "address"
        }
      ],
      "name": "getPaymentStatus",
      "outputs": [
        {
          "internalType": "bool",
          "name": "",
          "type": "bool"
        },
        {
          "internalType": "uint256",
          "name": "",
          "type": "uint256"
        }
      ],
      "stateMutability": "view",
      "type": "function"
    },
    {
      "inputs": [
        {
          "internalType": "address",
          "name": "",
          "type": "address"
        }
      ],
      "name": "isOddWhitelistUser",
      "outputs": [
        {
          "internalType": "uint256",
          "name": "",
          "type": "uint256"
        }
      ],
      "stateMutability": "view",
      "type": "function"
    },
    {
      "inputs": [],
      "name": "owner",
      "outputs": [
        {
          "internalType": "address",
          "name": "",
          "type": "address"
        }
      ],
      "stateMutability": "view",
      "type": "function"
    },
    {
      "inputs": [],
      "name": "paymentCounter",
      "outputs": [
        {
          "internalType": "uint256",
          "name": "",
          "type": "uint256"
        }
      ],
      "stateMutability": "view",
      "type": "function"
    },
    {
      "inputs": [],
      "name": "totalSupply",
      "outputs": [
        {
          "internalType": "uint256",
          "name": "",
          "type": "uint256"
        }
      ],
      "stateMutability": "view",
      "type": "function"
    },
    {
      "inputs": [
        {
          "internalType": "address",
          "name": "_recipient",
          "type": "address"
        },
        {
          "internalType": "uint256",
          "name": "_amount",
          "type": "uint256"
        },
        {
          "internalType": "string",
          "name": "_name",
          "type": "string"
        }
      ],
      "name": "transfer",
      "outputs": [
        {
          "internalType": "bool",
          "name": "status_",
          "type": "bool"
        }
      ],
      "stateMutability": "nonpayable",
      "type": "function"
    },
    {
      "inputs": [
        {
          "internalType": "address",
          "name": "_recipient",
          "type": "address"
        },
        {
          "internalType": "uint256",
          "name": "_amount",
          "type": "uint256"
        }
      ],
      "name": "whiteTransfer",
      "outputs": [],
      "stateMutability": "nonpayable",
      "type": "function"
    },
    {
      "inputs": [
        {
          "internalType": "address",
          "name": "",
          "type": "address"
        }
      ],
      "name": "whitelist",
      "outputs": [
        {
          "internalType": "uint256",
          "name": "",
          "type": "uint256"
        }
      ],
      "stateMutability": "view",
      "type": "function"
    }
  ],
  "bytecode": {
    "object": "0x610120604052600060015560006002553480156200001c57600080fd5b5060405162000e3a38038062000e3a8339810160408190526200003f9162000252565b6200004a33620001cf565b816000815181106200006057620000606200032c565b60200260200101516001600160a01b03166080816001600160a01b031681525050816001815181106200009757620000976200032c565b60200260200101516001600160a01b031660a0816001600160a01b03168152505081600281518110620000ce57620000ce6200032c565b60200260200101516001600160a01b031660c0816001600160a01b031681525050816003815181106200010557620001056200032c565b60200260200101516001600160a01b031660e0816001600160a01b031681525050816004815181106200013c576200013c6200032c565b60209081029190910101516001600160a01b03166101005260005b6005811015620001c557336001600160a01b03168382815181106200018057620001806200032c565b60200260200101516001600160a01b031603620001b05750336000908152600360205260409020819055620001c7565b80620001bc8162000342565b91505062000157565b505b50506200036a565b600080546001600160a01b038381166001600160a01b0319831681178455604051919092169283917f8be0079c531659141344cd1fd0a4f28419497f9722a3daafe3b4186f6b6457e09190a35050565b634e487b7160e01b600052604160045260246000fd5b80516001600160a01b03811681146200024d57600080fd5b919050565b600080604083850312156200026657600080fd5b82516001600160401b03808211156200027e57600080fd5b818501915085601f8301126200029357600080fd5b8151602082821115620002aa57620002aa6200021f565b8160051b604051601f19603f83011681018181108682111715620002d257620002d26200021f565b604052928352818301935084810182019289841115620002f157600080fd5b948201945b838610156200031a576200030a8662000235565b85529482019493820193620002f6565b97909101519698969750505050505050565b634e487b7160e01b600052603260045260246000fd5b6000600182016200036357634e487b7160e01b600052601160045260246000fd5b5060010190565b60805160a05160c05160e05161010051610a45620003f5600039600081816102e60152818161061e01526108930152600081816102bf015281816105ef0152610860015260008181610258015281816105c0015261082d0152600081816101200152818161059101526107fa0152600081816103470152818161056201526107c80152610a456000f3fe608060405234801561001057600080fd5b50600436106101165760003560e01c806395842f48116100a2578063cb5f175011610071578063cb5f1750146102e1578063cdbce03d14610308578063d89d15101461031c578063ea28d3201461032f578063f03ba6441461034257600080fd5b806395842f48146102535780639b19251a1461027a578063a30da0691461029a578063b2f84f2e146102ba57600080fd5b806356b8c724116100e957806356b8c724146101ab57806370a08231146101ce57806376840b60146101f7578063888b2284146102005780638da5cb5b1461024257600080fd5b80630c9b17091461011b57806318160ddd1461015f578063214405fc1461017657806327e235e31461018b575b600080fd5b6101427f000000000000000000000000000000000000000000000000000000000000000081565b6040516001600160a01b0390911681526020015b60405180910390f35b61016860015481565b604051908152602001610156565b6101896101843660046108e1565b610369565b005b61016861019936600461090b565b60036020526000908152604090205481565b6101be6101b936600461092d565b61045c565b6040519015158152602001610156565b6101686101dc36600461090b565b6001600160a01b031660009081526003602052604090205490565b61016860025481565b61022b61020e36600461090b565b6001600160a01b0316600090815260056020526040902054600191565b604080519215158352602083019190915201610156565b6000546001600160a01b0316610142565b6101427f000000000000000000000000000000000000000000000000000000000000000081565b61016861028836600461090b565b60046020526000908152604090205481565b6101686102a836600461090b565b60066020526000908152604090205481565b6101427f000000000000000000000000000000000000000000000000000000000000000081565b6101427f000000000000000000000000000000000000000000000000000000000000000081565b6101be6000546001600160a01b0316331490565b61014261032a3660046109b4565b610555565b61018961033d3660046108e1565b610643565b6101427f000000000000000000000000000000000000000000000000000000000000000081565b6103716107c4565b15801561038f575061038d6000546001600160a01b0316331490565b155b156103ad576040516348f5c3ed60e01b815260040160405180910390fd5b60ff81106103f15760405162461bcd60e51b815260206004820152600c60248201526b24b73b30b634b2102a34b2b960a11b60448201526064015b60405180910390fd5b600381116103ff5780610402565b60035b6001600160a01b0383166000818152600460209081526040918290209390935580519182529181018390527f62c1e066774519db9fe35767c15fc33df2f016675b7cc0c330ed185f286a2d52910160405180910390a15050565b336000908152600360205260408120548411156104b25760405162461bcd60e51b8152602060048201526014602482015273496e73756666696369656e742042616c616e636560601b60448201526064016103e8565b60088211156104f95760405162461bcd60e51b8152602060048201526013602482015272092dcecc2d8d2c8409cc2daca4098cadccee8d606b1b60448201526064016103e8565b33600090815260036020526040812080548692906105189084906109e3565b90915550506001600160a01b038516600090815260036020526040812080548692906105459084906109fc565b9091555060019695505050505050565b60008160000361058657507f0000000000000000000000000000000000000000000000000000000000000000919050565b816001036105b557507f0000000000000000000000000000000000000000000000000000000000000000919050565b816002036105e457507f0000000000000000000000000000000000000000000000000000000000000000919050565b8160030361061357507f0000000000000000000000000000000000000000000000000000000000000000919050565b8160040361063e57507f00000000000000000000000000000000000000000000000000000000000000005b919050565b3360009081526004602081905260409091205411156106755760405163e142361760e01b815260040160405180910390fd5b600381116106b65760405162461bcd60e51b815260206004820152600e60248201526d125b9d985b1a5908105b5bdd5b9d60921b60448201526064016103e8565b3360008181526005602090815260408083208590556003909152812080548492906106e29084906109e3565b90915550506001600160a01b0383166000908152600360205260408120805484929061070f9084906109fc565b90915550506001600160a01b038116600090815260046020908152604080832054600390925282208054919290916107489084906109fc565b90915550506001600160a01b0380821660009081526004602090815260408083205493871683526003909152812080549091906107869084906109e3565b90915550506040516001600160a01b038416907f98eaee7299e9cbfa56cf530fd3a0c6dfa0ccddf4f837b8f025651ad9594647b390600090a2505050565b60007f00000000000000000000000000000000000000000000000000000000000000006001600160a01b031633148061082557507f00000000000000000000000000000000000000000000000000000000000000006001600160a01b031633145b8061085857507f00000000000000000000000000000000000000000000000000000000000000006001600160a01b031633145b8061088b57507f00000000000000000000000000000000000000000000000000000000000000006001600160a01b031633145b806108be57507f00000000000000000000000000000000000000000000000000000000000000006001600160a01b031633145b156108c7575060015b90565b80356001600160a01b038116811461063e57600080fd5b600080604083850312156108f457600080fd5b6108fd836108ca565b946020939093013593505050565b60006020828403121561091d57600080fd5b610926826108ca565b9392505050565b6000806000806060858703121561094357600080fd5b61094c856108ca565b935060208501359250604085013567ffffffffffffffff8082111561097057600080fd5b818701915087601f83011261098457600080fd5b81358181111561099357600080fd5b8860208285010111156109a557600080fd5b95989497505060200194505050565b6000602082840312156109c657600080fd5b5035919050565b634e487b7160e01b600052601160045260246000fd5b818103818111156109f6576109f66109cd565b92915050565b808201808211156109f6576109f66109cd56fea2646970667358221220717f8565c37262585f7798b76d2a7d85e77323e55f6ce0926872099c58a7ca1e64736f6c63430008110033",
    "linkReferences": {}
  },
  "methodIdentifiers": {
    "addToWhitelist(address,uint256)": "214405fc",
    "administrator0()": "f03ba644",
    "administrator1()": "0c9b1709",
    "administrator2()": "95842f48",
    "administrator3()": "b2f84f2e",
    "administrator4()": "cb5f1750",
    "administrators(uint256)": "d89d1510",
    "balanceOf(address)": "70a08231",
    "balances(address)": "27e235e3",
    "checkOwner()": "cdbce03d",
    "getPaymentStatus(address)": "888b2284",
    "isOddWhitelistUser(address)": "a30da069",
    "owner()": "8da5cb5b",
    "paymentCounter()": "76840b60",
    "totalSupply()": "18160ddd",
    "transfer(address,uint256,string)": "56b8c724",
    "whiteTransfer(address,uint256)": "ea28d320",
    "whitelist(address)": "9b19251a"
  },
  "id": 19
}